:100000000080001071010000ED010000F50100000A
:10001000FD010000050200000D02000000000000CC
:1000200000000000000000000000000015020000B9
:100030001D02000000000000250200002D0200004B
:1000400035020000350200003502000035020000D4
:1000500035020000350200003502000035020000C4
:1000600035020000350200003502000035020000B4
:1000700035020000350200003502000035020000A4
:100080003502000035020000350200003502000094
:100090003502000035020000350200003502000084
:1000A0008102000035020000350200003502000028
:1000B0003502000035020000350200003502000064
:1000C000350200003502000035020000C047000084
:1000D00000000010C8000000C047000000C007205A
:1000E00000000000C8000010EC0B000000C007205A
:1000F0000000000080B489B000AFF860B9607A6099
:10010000BB68FB61FB68BB6100237B610AE0BA69E5
:10011000131DBB61FB69191DF96112681A607B69C7
:1001200004337B617A697B689A42F0D300BF00BFD9
:100130002437BD4680BC704780B485B000AF78607E
:1001400039607B68FB600023BB6007E0FB681A1D19
:10015000FA6000221A60BB680433BB60BA683B686F
:100160009A42F3D300BF00BF1437BD4680BC70472E
:1001700080B584B000AF1A4BFB6013E0FB681A1D1A
:10018000FA601B683B60FB681A1DFA601B68BB6065
:10019000FB681A1DFA601B687B607A68B96838686A
:1001A000FFF7A8FFFB680F4A9342E7D30DE0FB6817
:1001B0001A1DFA601B68BB60FB681A1DFA601B6899
:1001C0007B607968B868FFF7B7FFFB68064A93421F
:1001D000EDD300F02BFB03F0DFFE00BFFDE700BF17
:1001E000CC000000E4000000F400000080B400AF88
:1001F00000BFFDE780B400AF00BFFDE780B400AFF3
:1002000000BFFDE780B400AF00BFFDE780B400AFE2
:1002100000BFFDE780B400AF00BFFDE780B400AFD2
:1002200000BFFDE780B400AF00BFFDE780B400AFC2
:1002300000BFFDE780B400AF00BFFDE780B483B02E
:1002400000AF0346FB71FB7903F01F03012202FAA2
:1002500003F1054A97F907305B0942F8231000BF04
:100260000C37BD4680BC704700E100E080B500AFB0
:1002700001F0D4FB012001F037FB00BF80BDFFFF80
:1002800080B500AF044B1B681B68DB68034A12682B
:100290001046984700BF80BD4C0000109806001023
:1002A00080B487B000AF7860396000233B617B6821
:1002B0007B617B68FB6015E07B695B78042B07D171
:1002C0007B693B613B695B791A463B6893420ED080
:1002D00000233B617B691B781A467B691344FB60F2
:1002E000FB687B617B691B78002BE5D100E000BFD8
:1002F0003B6918461C37BD4680BC704780B5A0B02E
:1003000002AF0023FB660023BB6600237B6601F07F
:1003100079FB01F0D7FA01F04DFEFFF7A7FF07F1D7
:10032000180344220021184603F041FE4C4BBB61E8
:10033000032387F824304B4BFB614FF400633B628F
:10034000494B7B60494BBB60494B3B61484BFB6071
:1003500000237B61474B1B681B685B6807F1180231
:10036000391D45489847F866FB6E002B17D1424B64
:100370001B6807F11802391D184600F061F9F8668C
:10038000FB6E002B0BD11820FFF758FF394B1B6871
:100390001B689B68384A1268012110469847002361
:1003A00087F86330354B364A3649374800F0C6FA8D
:1003B000354801F043F947E030BF00BF4FF480718A
:1003C000324800F0B3F9034687F86230002387F81B
:1003D000773033E097F877302C4AD35C19462A48B7
:1003E00000F09EFC0346002B23D03B4619462648CE
:1003F00001F058F8F86500233B670EE03A683B6F60
:100400009B0013441B680093FB6D3A6F204900204A
:1004100003F092FC3B6F01333B673A6FFB6D9A42EE
:10042000ECDB3B681946F86D01F017F9164801F04E
:1004300005F997F87730013387F8773097F8772008
:1004400097F862309A42C5D397F8633083F001037E
:10045000DBB2002BB0D1002318467837BD4680BDF3
:1004600000C2005000C00720D8450000EC45000045
:10047000000000104C000010980600100C0B00103B
:100480006F16000044460000C8010010C8000010AC
:100490005046000080B483B000AF0346FB71FB7987
:1004A00003F01F03012202FA03F1054A97F907300E
:1004B0005B0942F8231000BF0C37BD4680BC704773
:1004C00000E100E080B483B000AF0346FB71FB792C
:1004D00003F01F03012202FA03F1064A97F90730DD
:1004E0005B09203342F8231000BF0C37BD4680BCA7
:1004F000704700BF00E100E080B487B000AFF86053
:10050000B9607A60BB687B617B68032B07D17B692C
:100510001B8A9BB223F001039AB27B691A820023E3
:1005200018461C37BD4680BC7047FFFF90B587B0AA
:1005300000AFF860B9607A60BB687B617B68022BB2
:1005400003D07B68042B41D05EE0324B1B681B68F4
:100550005B6C7A6992680121F868984703469AB201
:100560007B69DA817B695B8A9BB203F00403002B11
:1005700014D07B695B8A9BB223F004039AB27B6937
:100580005A827B69DB89002B3BD07B695B8A9BB2FB
:1005900043F002039AB27B695A8232E07B695B8A3C
:1005A0009BB203F00803002B2BD07B695B8A9BB2C4
:1005B00023F008039AB27B695A827B695B8A9BB2FB
:1005C00043F001039AB27B695A821AE07B695B8A25
:1005D0009BB203F00603002B15D10E4B1B681B6862
:1005E0009C6C7B699A684FF400730121F868A047FE
:1005F0007B695B8A9BB243F004039AB27B695A829F
:1006000001E000BF00E000BF002318461C37BD46D4
:1006100090BD00BF4C00001080B485B000AF786082
:100620003960064BFB60FB684FF480721A8200232E
:1006300018461437BD4680BC704700BF9C060010AA
:1006400090B599B000AFF860B9607A600023FB659F
:10065000304AFB68136007F1100348220021184656
:1006600003F0A5FC7B685B683B617B689B687B61F2
:10067000BB68DB6802211846FFF712FE0346BB6128
:10068000BB68DB680A211846FFF70AFE0346FB61D8
:10069000214BFB64214B1B685B695B6807F1100110
:1006A0001F4AF8689847F865FB6D002B2CD13B6911
:1006B0001A46184B9A603B6903F500733B617B69EE
:1006C000A3F500737B610323BB65144B1B685B6858
:1006D0005C68104B134AB96DF868A047F865FB6D6C
:1006E000002B0BD10223BB650C4B1B685B685C685D
:1006F000084B0D4AB96DF868A047F8653A697B6800
:100700005A607A697B689A60FB6D18466437BD460B
:1007100090BD00BF9C060010190600004C000010A0
:10072000A0060010F90400002D05000080B584B07B
:1007300000AF786039601F4BBB600023FB81BB6852
:10074000DB89002B30D0BB68DB891A463B689342BB
:1007500028BF1346FB81BB689B68FA8919467868F5
:1007600003F021FCBB689A89FB8913449AB2BB68E9
:100770009A811820FFF7A6FEBB689A89BB68DB89BF
:100780009A420ED3BB685B8A9BB223F002039AB2F3
:10079000BB685A82BB680022DA81BB68DA89BB6811
:1007A0009A811820FFF776FEFB8918461037BD4660
:1007B00080BD00BF9C06001090B585B000AF78608A
:1007C0003960184BBB600023FB60BB681B8A9BB27F
:1007D00003F48073002B1FD0BB681B8A9BB203F00D
:1007E0000103002B18D1BB681B8A9BB243F00103A5
:1007F0009AB2BB681A821820FFF764FE0A4B1B6886
:100800001B681C6DBB6818683B687A688121A0472B
:10081000F8601820FFF73EFEFB6818461437BD4607
:1008200090BD00BF9C0600104C00001080B582B047
:1008300000AF054B7B60054A7B681A6001F0B5F894
:1008400000BF0837BD4680BD08ED00E00000000095
:1008500080B582B000AF78600B46FB701346BB706A
:100860007B68D3F87434002B1AD0FB780A2B08D19C
:100870007B68D3F874347A68D2F8780400220D21AA
:1008800098477B68D3F874347A68D2F87804BA78D9
:10089000F9789847FB781A460349002003F04CFA90
:1008A00000BF0837BD4680BD6446000080B582B0F9
:1008B00000AF7860396010E03B6819783B6801331D
:1008C0001B78002B0CBF01230023DBB21A4678688B
:1008D000FFF7BEFF3B6801333B603B681B78002B92
:1008E000EAD100BF00BF0837BD4680BD80B483B0E9
:1008F00000AF78607B680022C3F868247B68002220
:10090000C3F86C247B680022C3F880247B68002233
:1009100083F87C247B6893F87C247B6883F87D24AF
:100920007B684FF0FF32C3F864247B68002283F8B1
:10093000602400BF0C37BD4680BC704780B584B0D2
:1009400000AFF860B9607A603B604FF49A620021B2
:10095000F86803F02CFBFB687A68C3F87424FB6822
:100960003A68C3F87824BB68002B0BD0FB6803F20D
:10097000C4430A22B968184603F0C0FBFB68002292
:1009800083F8CD24F868FFF7B1FF00BF1037BD46EC
:1009900080BDFFFF80B586B000AFF860B960134638
:1009A000FB711B233B745B237B74BA680E4B83FB88
:1009B00002139910D317C91A0B469B000B445B0016
:1009C000D11ACBB23033DBB2BB74FB79FB7400239A
:1009D0003B7507F110031946F868FFF767FF00BF82
:1009E0001837BD4680BD00BF6766666680B584B0B7
:1009F00000AF786039600DE03B68092BA8BF092380
:100A0000FB604422F9687868FFF7C4FF3A68FB6826
:100A1000D31A3B603B68002BEEDC00BF00BF1037F1
:100A2000BD4680BD80B584B000AF786039600DE010
:100A30003B68092BA8BF0923FB604322F96878684B
:100A4000FFF7A8FF3A68FB68D31A3B603B68002BAE
:100A5000EEDC00BF00BF1037BD4680BD80B582B060
:100A600000AF786039600AE03B68002B0CBF0123BF
:100A70000023DBB21A4608217868FFF7E9FE3B68DD
:100A80005A1E3A60002BEFD100BF00BF0837BD46A9
:100A900080BD80B584B000AF78600023FB60F9684A
:100AA000786800F085F8B860BB68002B01D100239E
:100AB0000DE07B681946B86803F04CFB0346002B39
:100AC00001D0BB6803E0FB680133FB60E7E7184631
:100AD0001037BD4680BDFFFF80B584B000AF7860A1
:100AE0000B46FB707B68D3F86834762B59DC7B6847
:100AF000D3F86C3401337A68D0187B68D3F86C343F
:100B00007A68D1187B68D3F868247B68D3F86C3492
:100B1000D31A1A4603F049FA7B68D3F86C347A6822
:100B2000F978D1547B68D3F868345A1C7B68C3F8D1
:100B300068247B68D3F868347A680021D1547B68D4
:100B4000D3F86C345A1C7B68C3F86C247B6893F828
:100B50006034002B0FD015497868FFF7A7FE78683E
:100B6000FFF797FFF860FB68002B1BD0F9687868E7
:100B7000FFF79CFE16E07B68D3F86C34013B7A6883
:100B8000134419467868FFF791FE7B68D3F8682410
:100B90007B68D3F86C34D31A19467868FFF726FFC0
:100BA00000E000BF1037BD4680BD00BF804600009A
:100BB00080B586B000AF7860396000237B613B6808
:100BC000002B01DA002326E000233B611BE07B6958
:100BD00078337A681344184603F069FA0346FB60D9
:100BE000FB68002B01D1002315E0FB6801337A6913
:100BF00013447B617B69B3F57A7F01D100230AE05E
:100C00003B6901333B613A693B689A42DFDB7B69B0
:100C100078337A68134418461837BD4680BD80B5CE
:100C200084B000AF78607B68184603F040FA034652
:100C3000FB60FB68002B27DD7A687B6878331946F8
:100C4000104603F012FA0346002B1CD0FB68013358
:100C500078337A68D0187B6803F17801FB68C3F5B4
:100C60007A7301331A4603F0A0F97B6803F1780028
:100C70007968FB6801331A4603F095F97B68002216
:100C800083F85F2400E000BF1037BD4680BDFFFF42
:100C900080B584B000AF78600B46FB707868FFF7D2
:100CA000F8FEF860FB68002B0AD07B687822F968B0
:100CB000184603F023FA7B68002283F8772002E0CD
:100CC0007B6800221A707B68184603F0F0F903462F
:100CD0001A467B68C3F86C247B68D3F86C247B6865
:100CE000C3F868247B68002283F86024FB78002B1B
:100CF0000FD00A497868FFF7D9FD7B6803F2C44337
:100D000019467868FFF7D2FD7B6819467868FFF7C7
:100D1000CDFD00BF1037BD4680BD00BF904600002E
:100D200080B588B000AF78600B46FB707B6893F8A5
:100D30007034002B06D07B6800221A707B6800227A
:100D400083F870247B6893F87D34002B00F09C813D
:100D5000FB782F2B17D9FB78392B14D87B68D3F865
:100D60008034632B0FDC7B68D3F8802413469B0010
:100D700013445B001A46FB781344A3F130027B68EE
:100D8000C3F8802444E37B68D3F88034002B03D17C
:100D90007B680122C3F88024FB78482B1ADC412BA6
:100DA000C0F25881413B072B00F2548101A252F856
:100DB00023F000BFDD0D0000870E0000210F0000B2
:100DC0005F0F000055100000930F00005510000049
:100DD000B70F00007E2B00F0FA803BE17B6893F8B0
:100DE0007034002B01D0002302E07B68D3F86C3410
:100DF00019467868FFF732FE7B68D3F86434013314
:100E000019467868FFF7D4FE78617B69002B27D0FC
:100E1000786903F04CF90346FB607B68D3F86434CF
:100E20005A1C7B68C3F864247B6878227969184669
:100E300003F064F97B68002283F877207B68FA6806
:100E4000C3F868247B68FA68C3F86C247B68194689
:100E50007868FFF72BFD8A497868FFF727FD00E1E6
:100E60007B68D3F864343B617B6800221A70786831
:100E7000FFF73CFD7B683A69C3F8642480497868D1
:100E8000FFF714FDEDE07B6893F87034002B01D080
:100E9000002302E07B68D3F86C3419467868FFF7CA
:100EA000DDFD7B68D3F86434013B19467868FFF7B1
:100EB0007FFEF861FB69002B27D0F86903F0F7F893
:100EC0000346BB617B68D3F864345A1E7B68C3F861
:100ED00064247B687822F969184603F00FF97B686F
:100EE000002283F877207B68BA69C3F868247B689E
:100EF000BA69C3F86C247B6819467868FFF7D6FC9A
:100F00005F497868FFF7D2FCABE07B6800221A707B
:100F10007868FFF7EBFC5A497868FFF7C7FCA0E058
:100F20007B68D3F86C247B68D3F868147B68D3F8AB
:100F30008034CB1A9A4200F38F807B68D3F86C24FC
:100F40007B68D3F880341A447B68C3F86C247B68D0
:100F5000D3F8803419467868FFF764FD7CE07B683D
:100F6000D3F86C247B68D3F880349A4276DB7B68B4
:100F7000D3F86C247B68D3F88034D21A7B68C3F82A
:100F80006C247B68D3F8803419467868FFF72EFD0F
:100F900064E07B68D3F868247B68D3F86C34D31A98
:100FA00019467868FFF73EFD7B68D3F868247B68B4
:100FB000C3F86C2455E07B68D3F86C341946786824
:100FC000FFF714FD7B680022C3F86C2449E07B68BE
:100FD000D3F88034032B43D17B68D3F86C247B682F
:100FE000D3F868349A423BDA7B68D3F86C347A6879
:100FF000D0187B68D3F86C3401337A68D1187B68D9
:10100000D3F868247B68D3F86C34D31A1A4602F0FC
:10101000CCFF7B68D3F868345A1E7B68C3F8682419
:101020007B68D3F86C347A68134419467868FFF704
:101030003DFC14497868FFF739FC7B68D3F86824D5
:101040007B68D3F86C34D31A013319467868FFF7FC
:10105000CDFC05E000BF04E000BF02E000BF00E0FF
:1010600000BF7B68002283F87C247B6893F87C2493
:101070007B6883F87D247B680022C3F88024C7E165
:10108000944600009C460000FB785B2B00F3C28076
:10109000002BC0F2AF815B2B00F2AC8101A252F8B1
:1010A00023F000BF071400001B120000F51300001E
:1010B00033120000F513000057120000F513000072
:1010C000F5130000D5120000F5130000E91300002D
:1010D0007B1200009D120000E5130000F5130000D4
:1010E000F5130000F5130000F5130000771300005E
:1010F000F5130000F5130000F5130000F5130000D0
:10110000F5130000F5130000F5130000F5130000BF
:1011100099130000F5130000F5130000F51300000B
:10112000F5130000F5130000F5130000F51300009F
:10113000F5130000F5130000F5130000F51300008F
:10114000F5130000F5130000F5130000F51300007F
:10115000F5130000F5130000F5130000F51300006F
:10116000F5130000F5130000F5130000F51300005F
:10117000F5130000F5130000F5130000F51300004F
:10118000F5130000F5130000F5130000F51300003F
:10119000F5130000F5130000F5130000F51300002F
:1011A000F5130000F5130000F5130000F51300001F
:1011B000F5130000F5130000F5130000F51300000F
:1011C000F5130000F5130000F5130000F5130000FF
:1011D000F5130000F5130000F5130000F5130000EF
:1011E000F5130000F5130000F5130000F5130000DF
:1011F000F5130000F5130000F5130000F5130000CF
:10120000F5130000F5130000F5130000F5130000BE
:10121000C51300007F2B5DD0ECE07B68D3F86C3405
:1012200019467868FFF7E2FB7B680022C3F86C245C
:10123000EEE089497868FFF739FB7B6803F2C44325
:1012400019467868FFF732FB7868FFF74FFB7B6839
:1012500000221A70DCE07B68D3F868247B68D3F83E
:101260006C34D31A19467868FFF7DCFB7B68D3F837
:1012700068247B68C3F86C24CAE078497868FFF773
:1012800015FB7B68D3F86C347A680021D1547B68F5
:10129000D3F86C247B68C3F86824B9E07049786897
:1012A000FFF704FB7B6803F2C44319467868FFF735
:1012B000FDFA7B6819467868FFF7F8FA7B68D3F87F
:1012C00068247B68D3F86C34D31A19467868FFF722
:1012D0008DFB9DE07B6893F86034002B03D00121E7
:1012E0007868FFF7D5FC7B68D3F86C34002B40F3AB
:1012F0008C807B68D3F86C34013B7A68D0187B68AB
:10130000D3F86C347A68D1187B68D3F868247B688A
:10131000D3F86C34D31A01331A4602F046FE7B68C8
:10132000D3F86C345A1E7B68C3F86C247B68D3F8FE
:1013300068345A1E7B68C3F8682401217868FFF777
:1013400055FB7B68D3F86C347A6813441946786887
:10135000FFF7ACFA43497868FFF7A8FA7B68D3F83F
:1013600068247B68D3F86C34D31A01331946786843
:10137000FFF73CFB49E07B6893F8603483F001039E
:10138000DBB2002B43D038497868FFF78FFA7B68CF
:10139000012283F860243AE07B6893F86034002BE4
:1013A00003D001217868FFF773FC7B68002283F883
:1013B0007D247B68012283F87C247B680022C3F8AB
:1013C000802425E07B6893F87C34002B04D07B6874
:1013D000012283F87D241BE0FB7819467868FFF72B
:1013E0007BFB15E00A23FB7001220A217868FFF7D6
:1013F0002FFA0DE0FB78002B0AD0FB7819467868AD
:10140000FFF76AFB04E000BF02E000BF00E000BF9E
:10141000FB780A2B0CBF01230023DAB27B6883F828
:1014200070247B6893F87034002B0ED07B6893F89F
:101430006034002B03D000217868FFF729FC78681E
:10144000FFF7EDFB7868FFF751FA7B6893F870348B
:1014500018462037BD4680BDA046000094460000D7
:10146000904600009C460000A446000080B483B073
:1014700000AF0346FB71FB79202B08D0FB79092BC9
:1014800005D0FB790A2B02D0FB790D2B01D101236A
:1014900000E0002303F00103DBB218460C37BD4621
:1014A00080BC704780B586B000AF7860396000239B
:1014B0007B610023FB740023BB7400237B747B6877
:1014C00093F8703483F00103DBB2002B01D00023CA
:1014D000B0E00023FB608DE0BB7C002B02D000233A
:1014E000BB7484E07B7C002B19D07A68FB681344C2
:1014F0001B787A7C9A4279D17A68FB68D018FB68AD
:1015000001337A68D118FB68C3F177031A4602F0F9
:101510004CFD00237B74FB68013BFB6066E07A684E
:10152000FB6813441B781846FFF7A0FF0346002B07
:101530000AD0FB7C002B04D07A68FB68134400229D
:101540001A700023FB7452E0FB7C83F00103DBB2D2
:10155000002B11D07B690F2B57DC7A68FB681A448B
:1015600079687B6903F590739B000B445A607B6933
:1015700001337B610123FB747A68FB6813441B7899
:101580005C2B11D17A68FB68D018FB6801337A684C
:10159000D118FB68C3F177031A4602F006FDFB6819
:1015A000013BFB600123BB747A68FB6813441B7822
:1015B000272B05D07A68FB6813441B78222B16D1A1
:1015C0007A68FB6813441B787B747A68FB68D018D0
:1015D000FB6801337A68D118FB68C3F177031A46B8
:1015E00002F0E3FCFB68013BFB6000E000BFFB682E
:1015F0000133FB60FB68772B08D87A68FB681344DB
:101600001B78002B7FF468AF00E000BF7B690F2BD5
:1016100002DD7B69013B7B617A687B6903F590732E
:101620009B00134400225A607B6803F284423B68AB
:101630001A607B6918461837BD4680BD80B582B0F8
:1016400000AF78607B6803F2C44319467868FFF7FF
:101650002DF900BF0837BD4680BD80B483B000AF10
:101660007860396000BF0C37BD4680BC704780B5DC
:1016700084B000AF78600B46FB701346BB7000234C
:10168000FB8102E0FB890133FB81FB89B3F5005F3D
:10169000F8D3FB1C01211846FFF78EF800BF103766
:1016A000BD4680BD80B582B000AF78600F2000F0ED
:1016B000C3FA00BF0837BD4680BD80B582B000AF19
:1016C00078600F2000F0B8FA00BF0837BD4680BD33
:1016D00080B483B000AF78600B46FB701346BB70DC
:1016E000FB785B017A6813441968BB7801229A4041
:1016F000FB785B01786803440A431A6000BF0C372B
:10170000BD4680BC704780B483B000AF78600B46A4
:10171000FB701346BB70FB785B017A681344196851
:10172000BB78012202FA03F3DA43FB785B017868A5
:1017300003440A401A6000BF0C37BD4680BC7047A6
:1017400080B582B000AF7860084611461A4603465D
:10175000FB700B46BB7013467B707B78002B06D06A
:10176000BA78FB7819467868FFF7B2FF05E0BA78D7
:10177000FB7819467868FFF7C6FF00BF0837BD46FB
:1017800080BD80B582B000AF7860084611461A4629
:101790000346FB700B46BB7013467B707B78BA78B0
:1017A000F9787868FFF7CCFF00BF0837BD4680BDE9
:1017B00080B483B000AF78600B46FB70FA787B682A
:1017C0001A6000BF0C37BD4680BC704780B483B040
:1017D00000AF786039607B683A68DA6000BF0C3728
:1017E000BD4680BC704780B483B000AF78607B6832
:1017F0005B6918460C37BD4680BC704780B586B023
:1018000000AFF860B9607A6000237B6109E0BA68D4
:101810007B6913441B78184600F03AF87B69013362
:101820007B617B687A699A42F1D37B6818461837E6
:10183000BD4680BD80B500AF0123162200210248BD
:10184000FFF79FFF00BF80BD00C0092080B483B0B8
:1018500000AF786000BF0C37BD4680BC7047FFFF0B
:1018600080B500AF0948FFF7F1FF084800F05EFDC2
:101870004FF4E131054800F0ADFD03210348FFF7C7
:10188000A5FF024800F08EFD00BF80BD00C00940EA
:1018900080B582B000AF0346FB7100BF0848FFF778
:1018A000A2FF034603F02003002BF7D0FB79194673
:1018B0000348FFF77DFF00BF0837BD4680BD00BF6E
:1018C00000C0094080B500AFFFF7CAFF0448FFF72A
:1018D000F4FE0448FFF7E6FEFFF7ACFF00BF80BD53
:1018E00000C0092000C0024080B584B002AF78601B
:1018F00001230093082309220221124800F0C2FAB2
:101900000123009308231D2200210E4800F0BAFA9B
:101910000123009308231E2200210A4800F0B2FA96
:10192000094B1222C3F8F42F00BF074BD3F8F83F3E
:1019300003F01203122BF8D100BF00BF0837BD46D9
:1019400080BD00BF00C0024000C0005080B485B020
:1019500000AF0346FB71084B1B68C3F30B03FB602E
:10196000FB791A030449FB6813430B6000BF14376B
:10197000BD4680BC704700BF00C00F4080B500AFBF
:1019800017220349034800F0C7FA00BF80BD00BF1B
:10199000B846000000C0024080B500AF00F0ACFBCC
:1019A0000420FFF7D3FF00BF80BD80B500AFFFF775
:1019B000E5FFFFF7F1FF00BF80BDFFFF80B400AF80
:1019C000064BD3F8A83003F48063002B14BF012327
:1019D0000023DBB21846BD4680BC704700C00F40F4
:1019E00080B400AF064BD3F8A83003F40073002B8B
:1019F00014BF01230023DBB21846BD4680BC7047EC
:101A000000C00F4080B500AF00F002FA0346024A62
:101A1000136000BF80BD00BFB006001080B500AFEE
:101A200001220321012000F0D9F80121012000F05A
:101A30008FF800BFFFF7C2FF034683F00103DBB25C
:101A4000002BF7D10321012000F082F800BFFFF73F
:101A5000C7FF034683F00103DBB2002BF7D11F2041
:101A600000F0EAF800BF80BD80B400AF064BD3F8A9
:101A7000883003F08073002B14BF01230023DBB2F6
:101A80001846BD4680BC704700C00F4080B400AF10
:101A9000064BD3F8883003F00073002B14BF0123EA
:101AA0000023DBB21846BD4680BC704700C00F4023
:101AB00080B483B000AF0346FB71094AFB795B0138
:101AC00013448C33AA221A60054AFB795B01134444
:101AD0008C3355221A6000BF0C37BD4680BC70475E
:101AE00000C00F4080B400AF054BD3F80C31DBB21F
:101AF00003F00303DBB21846BD4680BC704700BF4D
:101B000000C00F4080B400AF024B1B681846BD46B2
:101B100080BC7047B046000080B400AF024B18464E
:101B2000BD4680BC704700BF00093D0080B400AFD7
:101B3000024B1B681846BD4680BC7047B446000087
:101B400080B500AF00F008F90346184680BDFFFFDE
:101B500080B584B000AF03463960FB710C4AFB7955
:101B600004335B0113441B68FB60FA683B68134352
:101B7000FB60074AFB7904335B011344FA681A607F
:101B8000FB791846FFF794FF00BF1037BD4680BDB4
:101B900000C00F4080B584B000AF03463960FB71D0
:101BA0000D4AFB7904335B0113441B68FB603B68FF
:101BB000DB43FA681340FB60074AFB7904335B019F
:101BC0001344FA681A60FB791846FFF771FF00BFEB
:101BD0001037BD4680BD00BF00C00F4080B586B045
:101BE00000AF0346B9607A60FB73FB7B002B05D125
:101BF0007B681B04BA6813437B6104E07B685B016C
:101C0000BA6813437B610B4AFB7B04335B011344CB
:101C100004337A691A60074AFB7B04335B0113447F
:101C200001221A60FB7B1846FFF742FF00BF1837FE
:101C3000BD4680BD00C00F4080B485B000AF0346F4
:101C4000FB71FB79FB60084BD3F8C4300121FA68C3
:101C500001FA02F21146044A0B43C2F8C43000BF35
:101C60001437BD4680BC704700C00F4080B582B0BD
:101C700000AFFFF70BFF0346002B02D00123FB71DF
:101C800001E00023FB71FB7918460837BD4680BD93
:101C900080B483B000AF7860044A7B68C2F8043136
:101CA00000BF0C37BD4680BC704700BF00C00F406E
:101CB00080B400AF044BD3F80431DBB201331846D3
:101CC000BD4680BC704700BF00C00F4080B487B0E5
:101CD00000AF0346FB7101237B61FB795B003B6135
:101CE0003B6903F01F03FB603B695B093B61194AD9
:101CF0003B696A3352F823307B617A69FB6822FAC8
:101D000003F303F003037B617B69002B02D10423FF
:101D10007B6119E07B69012B02D101237B6113E018
:101D20007B69022B02D102237B610DE0FB790D2B35
:101D300005D0FB790E2B02D0FB790F2B02D10623A5
:101D40007B6101E008237B617B6918461C37BD4637
:101D500080BC704700C00F4080B500AFFFF7C2FEE7
:101D60000346022B0ED0022B10DC002B02D0012BDD
:101D700004D00BE0FFF7D0FE034608E0FFF7C2FEF9
:101D8000034604E0FFF7D2FE034600E000231846B6
:101D900080BDFFFF80B584B000AF0023FB60FFF77C
:101DA00063FE0346002B18D00E4BD3F88430C3F3E8
:101DB0000E030133BB600B4BD3F884301B0CDBB23A
:101DC00001337B60FFF7BCFE0246BB6802FB03F3F6
:101DD0005A007B68B2FBF3F3FB60FB6818461037D0
:101DE000BD4680BD00C00F4080B500AFFFF73EFF8D
:101DF0000346002B05D0012B07D1FFF7CBFF03468D
:101E000004E0FFF7A9FF034600E00023184680BD69
:101E100098B500AFFFF7E8FF0446FFF749FF034618
:101E2000B4FBF3F3184698BD90B583B000AF0346FA
:101E3000FB71FFF7EDFF0446FB791846FFF746FFFD
:101E40000346B4FBF3F318460C37BD4690BD80B58E
:101E500086B002AFF8607B600B46FB721346BB7224
:101E60007B6898087B68DBB203F00303DBB2BA7AC5
:101E7000F97A00930346F86800F004F800BF1037C1
:101E8000BD4680BD80B487B000AFF8607B600B4674
:101E9000FB721346BB72BB7A03F00F03DBB25B002D
:101EA000FB75FB7A5B00DAB2BB7A1B09DBB2134429
:101EB000BB75BA7DFB6853F82220FB7D032101FA34
:101EC00003F3DB4313403B6197F82020FB7D02FACC
:101ED00003F31946BA7D3B691943FB6843F82210A6
:101EE000BA7DFB68103253F82220FB7D032101FAF2
:101EF00003F3DB4313403B61FB7D7A6802FA03F195
:101F0000BA7D3B691943FB68103243F8221000BFC9
:101F10001C37BD4680BC704780B586B000AFF86006
:101F2000B9607A6000237B611FE07B699B00BA681F
:101F300013441B78C3F30203DBB219467B699B0091
:101F4000BA6813441B78C3F3C403DBB218467B6939
:101F50009B00BA6813441B68C3F317230246F86852
:101F6000FFF775FF7B6901337B617A697B689A4271
:101F7000DBD300BF00BF1837BD4680BD80B483B03F
:101F800000AF78607B685B6843F001027B685A6051
:101F900000BF0C37BD4680BC704780B483B000AF33
:101FA000786039607B683A68DA6000BF0C37BD46FC
:101FB00080BC704780B582B000AF08237B601448B6
:101FC00000F00AF97B68013B19461148FFF7E5FF6D
:101FD0000F48FFF7D3FFFFF71BFF02467B68B2FBFA
:101FE000F3F39B080B4A13600A4B1B680A4AA2FBD7
:101FF00003239B09094A1360064B1B68084AA2FB8E
:1020000003239B0C074A136000BF0837BD4680BD01
:1020100000800040B4060010D34D6210B8060010D6
:1020200083DE1B43BC06001080B400AF064BD3F820
:10203000883003F08073002B14BF01230023DBB230
:102040001846BD4680BC704700C00F4080B400AF4A
:10205000064BD3F8883003F08063002B14BF0123B4
:102060000023DBB21846BD4680BC704700C00F405D
:1020700080B400AF064BD3F8883003F00073002B18
:1020800014BF01230023DBB21846BD4680BC704755
:1020900000C00F4080B400AF054BD3F8A031044A14
:1020A00043F02003C2F8A03100BFBD4680BC70479A
:1020B00000C00F4080B400AF064BD3F8A03103F04E
:1020C0004003002B14BF01230023DBB21846BD469A
:1020D00080BC704700C00F4080B483B000AF03469F
:1020E000FB71044AFB79C2F80C3100BF0C37BD46C6
:1020F00080BC704700C00F4080B500AFFFF7B8FF4D
:102100000346002B03D002210020FFF743FDFFF719
:102110008BFF0346002B03D001210020FFF73AFD7F
:10212000FFF7C8FF034683F00103DBB2002B01D0A9
:10213000FFF7B0FF00BFFFF7BDFF034683F00103C9
:10214000DBB2002BF7D10020FFF7A2FD0120FFF743
:10215000C3FF00220F210020FFF740FD01210020D6
:10216000FFF7F6FC0320FFF793FD00BFFFF76EFFBC
:10217000034683F00103DBB2002BF7D102210020DC
:10218000FFF7E6FC00BF80BD80B485B000AF78608B
:102190007B680E4A934202D10223FB730FE07B68F7
:1021A0000B4A934202D11623FB7308E07B68094A6D
:1021B000934202D11723FB7301E00123FB73FB7BE6
:1021C00018461437BD4680BC704700BF00800040F1
:1021D000000009400040094080B582B000AF78603F
:1021E0007868FFF7D1FF03461846FFF725FD00BFCB
:1021F0000837BD4680BD80B483B000AF78603960D9
:102200007B683A689A6000BF0C37BD4680BC704757
:1022100080B483B000AF786039607B683A68DA6078
:1022200000BF0C37BD4680BC704780B483B000AFA0
:1022300078607B68DB6843F080027B68DA6000BF0F
:102240000C37BD4680BC704780B483B000AF786067
:102250007B68DB6823F080027B68DA6000BF0C37A4
:10226000BD4680BC704780B483B000AF78600B4639
:10227000FB701346BB70FA787B681A60BA787B688B
:102280005A6000BF0C37BD4680BC704780B485B033
:1022900000AF78607B680E4A934202D10423FB733F
:1022A0000FE07B680B4A934202D11823FB7308E0CE
:1022B0007B68094A934202D11923FB7301E003238F
:1022C000FB73FB7B18461437BD4680BC704700BFCC
:1022D000000001400080094000C0094080B485B082
:1022E00000AF78607B680E4A934202D10423FB73EF
:1022F0000FE07B680B4A934202D11823FB7308E07E
:102300007B68094A934202D11923FB7301E003233E
:10231000FB73FB7B18461437BD4680BC704700BF7B
:10232000000001400080094000C0094080B584B031
:1023300000AF78607868FFF7A9FF03461846FFF7FB
:102340007BFC07217868FFF756FF786800F036F8C5
:102350007B6800225A607B680022DA607B6800227A
:102360001A627B680022DA647B6800225A657B6807
:1023700000221A657B680A4A934205D17B680022D5
:102380001A617B689B69FB6003217868FFF740FF57
:102390007B6810229A6200BF1037BD4680BD00BF27
:1023A0000000014080B483B000AF78607B68802279
:1023B0001A6300BF0C37BD4680BC704780B483B041
:1023C00000AF78607B6800221A6300BF0C37BD46FF
:1023D00080BC704780B586B000AF7860396078689F
:1023E000FFF77CFF03461846FFF71EFD78613B6848
:1023F0001B017A69B2FBF3F33B613B691B0AFB608B
:10240000FB681B023A69D31ABB607868FFF70DFFBF
:10241000BB68DBB2FA68D2B219467868FFF723FFCF
:102420007868FFF711FF7A693B69B2FBF3F318464E
:102430001837BD4680BD034600F00F0040001B0664
:1024400048BF01307047436810229A6019611A68CA
:10245000D206FCD5704738B504461546FFF7F3FFA2
:1024600020462946BDE83840FFF7EDBF38B50446A1
:1024700008461546FFF7DFFF010441F4A06120463E
:10248000FFF7E1FF20462946BDE83840FFF7DBBFF4
:10249000436830229A6019611A689206FCD558691F
:1024A00070474FF40C707047044A0029D0F8C801F7
:1024B000034908BF4FF48072FFF7CDBF0001010050
:1024C0000005FE00D0F8C83100225B689A64D0F89D
:1024D000A021D179D96401219964D279DA641A688A
:1024E000D205FCD54FF0FF329A635A639A600C22F2
:1024F0005A6070470346B3F89E31D0F8C8019B0775
:1025000003D50249024AFFF7A6BF70470005FE0047
:10251000000101007047FFFF70B50904D0F8C861E1
:10252000084D41F4000444F48074304629462246A4
:10253000FFF791FF304629462246BDE87040FFF77D
:102540008ABF00BF0005D00093682DE9F041B3F5C4
:102550000C7F8046144633D3566806F11002626041
:10256000A3F11002A2606568AA0702D00135656078
:10257000F9E705F50772A3F50B736260A360636862
:1025800013F0030702D001336360F8E728462246C0
:1025900000F0E2FF39461022304601F008FD2368C2
:1025A000B5602846C5F8C8617360FFF78BFF284601
:1025B0003946FFF7B1FFC8F800503846BDE8F08152
:1025C0000148BDE8F08100BF0A00040010B50A4AC6
:1025D000D0F8C841002908BF4FF48072204607494F
:1025E000FFF739FF636803225A641A68D205FCD5E5
:1025F0004FF480729A6010BD000101000005D80000
:1026000038B5054688780C46FFF715FF01210246CC
:102610009140D5F8C8315B68586C014359649A649D
:10262000A288DA641A68D205FCD54FF480729A60E9
:1026300038BD704710B504460846FFF7FCFE01049C
:1026400041F48001D4F8C80141F4A0614FF48072D4
:10265000BDE81040FFF7FFBE10B504460846FFF77F
:10266000EAFE010441F48001D4F8C80141F4A061FC
:10267000024ABDE81040FFF7EEBE00BF0001200097
:1026800010B504460846FFF7D6FE010441F4800168
:10269000D4F8C80141F4A0614FF48072BDE8104045
:1026A000FFF7D9BE10B504460846FFF7C4FE010483
:1026B00041F48001D4F8C80141F4A061024ABDE8A8
:1026C0001040FFF7C8BE00BF0001010010B504466E
:1026D0000846FFF7B0FE010441F48001D4F8C801B8
:1026E00041F4A0614FF48072BDE81040FFF7B3BE23
:1026F000043A38B51D46D0F8C8410D2A48D8DFE85D
:1027000002F00E0E474747474747474744074A0AE4
:102710000122002041E04FF4007200203DE0084615
:10272000FFF789FE012303FA00F0236815B118436F
:10273000206002E023EA000020602268236821680C
:10274000DB071B4B02F0020201EA030348BF42F021
:1027500004020BB142F020022168164B0B400BB172
:1027600042F0400223681449194009B142F00802BE
:1027700023681249194009B142F0100212042046A0
:102780000F4942F48072FFF766FE0022104604E013
:1027900000220C4801E00822002061684B6815B156
:1027A0001A434A6038BD23EA02024A6038BD00BFBE
:1027B000200882A01004415008822008044110041F
:1027C0000005F30001000400D0F8C80101F00F0378
:1027D0002DE9F0419B00456843F00103AB622C6A90
:1027E0002605FCD514F480681DD0C4F309085FEAFF
:1027F000980C25D016460023AF690133634546F88F
:10280000047BF9D102EB830204F003045CB1AE69EE
:102810001444002326FA03F502F8015BA24203F1F7
:102820000803F7D1456841F248230B410022DB073A
:10283000AA6202D4034AFFF719FE4046BDE8F081C0
:102840004446E3E70005F20070470020704700208F
:102850007047FFF7B9BFFFFFD0F8C8012DE9F0417D
:1028600001F00F044668A400DF1C44F00204BF0816
:10287000B4629846736206D0002452F8045B0134B7
:10288000BC42F561F9D10023B362034AFFF7EEFDC4
:102890004046BDE8F08100BF0005FA002DE9F04791
:1028A000D0F8C8918246D9F80420136823F00401B7
:1028B0009160516801EA030818F0080461D118F02A
:1028C000040F2BD0166B3EB3274605460121A140CD
:1028D000314219D00F43916313689806FCD5E30782
:1028E00050693DD4002C00F09080AB6D63B1D9F8F5
:1028F0000020114201D0C1066DD402225046D5F805
:10290000D8109847D9F804201F2C05D0B74204F1FD
:10291000010405F10405D9D10423936018F4007F64
:102920000FD0DAF83C3063B148464049FFF78BFDE1
:102930003F494846FFF7ACFDDAF83C3001465046C7
:10294000984718F0010F09D0DAF834300BB150462F
:102950009847D9F80C300133C9F80C30BDE8F0873E
:10296000AB6D002BD0D0D9F80020114201D0C206A7
:1029700029D403225046D5F8D8109847D9F8042016
:10298000C2E748462B49FFF75EFD48462A49FFF754
:102990007FFDC606044626D4A50706D5DAF83830EA
:1029A0001BB1504604F00101984704F00903092BBC
:1029B000D4D1640724D5DAF82C30002BCED0504681
:1029C0009847BDE8F08705225046D5F8D8109847BB
:1029D000D9F8042098E704225046D5F8D810984733
:1029E000D9F8042090E75046FFF76CFD504600F000
:1029F0009DFCDAF82830002BCED050469847CBE724
:102A0000DAF83030002BDAD1A8E743077FF56DAF55
:102A1000DAF85830002B3FF479AF01225046DAF84B
:102A2000D8109847D9F8042070E700BF0005FB00D4
:102A30000002FB000005FE000002FE0070B54D78AC
:102A40001646042D1A4618D003D84DB1022D0DD0CC
:102A500027E0222D13D0232D13D0202D21D115E0D6
:102A60000BB3036A1BB33168984770BDDBB1846A4E
:102A7000DCB149883268A04770BD036B02E0436B4C
:102A800000E0836B9BB14988984770BD2BB1C36B45
:102A90006BB100F11001984770BD00F11004346073
:102AA00001E0044870BD104670BD204670BD184658
:102AB00070BD00BF02000400012A38B50446084674
:102AC00002D0022A2AD04AE094F8143203F07F029E
:102AD000212A44D194F81822097E914202D0417EE5
:102AE00091423CD104F5EA72DB09C4F8CC2104F52B
:102AF000057104F5E67207D1456CA847054678BB19
:102B0000B4F81A3263BB26E0056C04F5E873A847F5
:102B1000054628BB204600F098FB21E094F81432CB
:102B200003F07F03212B1AD194F818320A7E9A42BF
:102B300002D04A7E9A4212D1D4F8CC21B4F81A328B
:102B4000456CD21AC4F8CC2104F5057104F5E6727F
:102B5000A847054620B9204600F0A0FB00E0014D43
:102B6000284638BD0200040038B54D780446032DD0
:102B700009D0212D14D0012D19D1456A1DB111465E
:102B80001A46A84738BDE56A1DB120464988A847BE
:102B900038BD10682946402201F009FA284638BDA0
:102BA00000F11004146007221A80002038BD01488B
:102BB00038BD00BF0200040008B50346A12018710B
:102BC00001294FF0000059719871D871187258722C
:102BD0009872D8720BD007D3202910D102211A7312
:102BE000120A99725A730AE00AB101229A71197F86
:102BF0001A1D18680823FFF72FFE002008BD0148A2
:102C000008BD00BF030001004C2070472DE9F041D2
:102C10000C68074614F0030F0D4690468E684B680B
:102C200002D0472B40F28380483B04F14B0223F053
:102C3000030322F003022A606B6020460021482231
:102C400001F0B5F93B4B276023643B4B63642B6A6F
:102C500023626B6A6362AB6AA362EB6AE3622B6B0B
:102C600023636B6B6363AB6BA363EB6BE36373789F
:102C7000042B02D03148BDE8F0817379022BF9D1E1
:102C80003379012BF6D8B37823763379012B04D02E
:102C9000EB685A78042AEDD115E033781E44327877
:102CA000334616445A78052A05D1DA78032AF6D134
:102CB0009B78237701E0042AF1D1237F002BE7D111
:102CC0001F48BDE8F0815A790A2AD3D19A79002A9F
:102CD000D0D19978617619781944187982420FD247
:102CE0000E78084631444678052E07D1C678022E64
:102CF00004D1807806064CBFA076E0760132ECE77E
:102D0000A37E002BDCD0E37E002BD9D0696C384643
:102D100021B90C49224600F08DFC04E0224600F067
:102D200089FC084B6B64C8F80040BDE8F081064898
:102D3000BDE8F081692B00003D2A00000800040076
:102D400009000400B92A00000A00040090F81432B7
:102D500013F01F0305D100F29D12C0F8CC211846D4
:102D600070470148704700BF01000400704770477A
:102D700090F8143203F01F03012B06D0022B15D05C
:102D8000002B37D100F5CF720DE090F89D318BB359
:102D900090F8182290F89B319A422BD20023A0F889
:102DA000D43100F5EA72C0F8CC2121E090F8183255
:102DB0001A064BBF4FF48031012103F00F0203F0DC
:102DC0008F0201FA02F290F89D1109B91B0711D187
:102DD000D0F8B4311A420DD0D0F8B8311A420CBF35
:102DE00000230123A0F8D43100F5EA73C0F8CC31F8
:102DF00000207047004870470100040010B590F8AB
:102E0000142212F01F0237D190F81732022B09D08A
:102E1000032B19D0012B2FD1D0F8A031C0F8CC3121
:102E2000122321E0D0F8AC3190F816128A4205D076
:102E30001C780CB15C8823440132F7E71A78DAB1C8
:102E4000C0F8CC315B880FE0D0F8A43190F816427E
:102E5000A24204D0197801B10B440132F8E71A7884
:102E600052B1C0F8CC311B78B0F8D0219A4288BF5B
:102E7000A0F8D031002010BD004810BD01000400B2
:102E800090F8143203F01F03012B0FD190F89D31FD
:102E900063B190F8183290F89B219A4206D903F555
:102EA000E0730344C0F8CC310020704700487047FD
:102EB00001000400F8B590F81432044613F01F0323
:102EC0000D4602D0022B1BD04AE0B0F81632012B7F
:102ED0000ED1036C03B19847B4F89E312DB143F085
:102EE0000203A4F89E310020F8BD23F00203F8E7A6
:102EF000022B35D190F81912BDE8F840FFF7A5BCB8
:102F000090F818321A0603F08F0105D503F00F026E
:102F10004FF48036964001E001268E4094F89D21C2
:102F2000F2B11B071CD0D4F8B4311E4218D0B4F84B
:102F30001672AFB935B12046FFF7B4FBD4F8B831FB
:102F40001E430AE0D4F8BC311E42CCD12046FFF724
:102F5000BDFBD4F8B83123EA0606C4F8B861C2E76D
:102F60000048F8BD01000400F8B590F8147204465A
:102F700017F01F0740F0BE8090F81632002B00F0CB
:102F80008480D0F8A851D0F8AC3190F89A21012A69
:102F900008BF1D462B78002B00F0A2806B78042B15
:102FA0004ED0052B4ED0022B6CD16A7994F8163294
:102FB000934243D184F89D312B7984F89B310023CF
:102FC000E21801330021082B82F8C011F8D1012644
:102FD00094F899319E4217D20122B240D4F8B4310C
:102FE0001A4203D020463146FFF736FB4FF48032B9
:102FF000B240D4F8B4311A4204D0204646F08001E1
:10300000FFF72AFB0136E3E74FF00113C4F8B431B0
:103010000023C4F8B831C4F8BC3120460121FFF7C1
:10302000D5FAEB7913F0400FB4F89E3114BF43F09A
:10303000010323F00103A4F89E3123E06B8822E012
:10304000EF781FE0F7B9AB781A0603F08F0606D5C4
:1030500003F00F034FF4803202FA03F301E001237F
:10306000B340D4F8B42120461343C4F8B431294600
:10307000FFF7C6FA20463146FFF7DCFA2046314614
:10308000FFF7FEFA2B781D4484E780F89D31012577
:1030900094F899319D4217D20122AA40D4F8B43154
:1030A0001A4203D020462946FFF7D6FA4FF4803261
:1030B000AA40D4F8B4311A4204D0204645F0800129
:1030C000FFF7CAFA0135E3E700214FF00113C4F816
:1030D000B431C4F8B811C4F8BC112046FFF776FA31
:1030E00094F89D0194F81622034B904214BF1846A1
:1030F0000020F8BD0048F8BD010004002DE9F74F9D
:1031000090F81432044603F01F03012B40F0918025
:1031100090F89D31002B00F08C80D0F8AC31D0F8C5
:10312000A85190F89A210026012A08BF1D46434B5A
:10313000B2463746B1462A78002A78D06A78042AFF
:103140000AD0052A1CD0022A6ED1697994F89D21F3
:10315000914269D06A8868E095F8029094F8182244
:10316000EF7891455DD194F81622974259D104EB3E
:10317000090393F8C0A183F8C07100231E4653E0F1
:1031800094F8182291454FD195F8028018F0800FDD
:1031900008F08F0B06D008F00F084FF4803202FAC7
:1031A00008F803E04FF0010808FA0BF894F816222B
:1031B00097421BD1D4F8B421204642EA0802C4F851
:1031C000B421D4F8B821294622EA0802C4F8B8216B
:1031D0000193FFF715FA20465946FFF72BFA2046D0
:1031E0005946FFF74DFA46EA080618E057451BD145
:1031F00018EA060F17D1D4F8B4216FEA080802EADA
:103200000802C4F8B421D4F8B821204602EA080222
:10321000C4F8B82159460193FFF71EFABA46019B3C
:1032200002E0002600E0BA462A78154483E71846F3
:1032300000E0024803B0BDE8F08F00BF01000400C9
:10324000002100F50572FFF704BBB0F8D03110B5CE
:10325000402B28BF40238021D0F8CC210446FFF723
:10326000FBFAD4F8CC310344C4F8CC31B4F8D031F3
:10327000181AA4F8D00110BD10B50021D0F8CC2147
:103280000446FFF7A1FAD4F8CC310344C4F8CC319A
:10329000B4F8D031181AA4F8D00110BD0022802152
:1032A0001346FFF7D9BA002100F5EA72FFF78CBA8E
:1032B00010B580210446FFF7F5F90023A4F8D031BA
:1032C00010BDFFFF90F8143213F01F0307D190F8E0
:1032D000162262F07F0280F89C2118467047014850
:1032E000704700BF01000400F8B504460F460546CC
:1032F000002694F898319E4213D2D5F858316BB11C
:103300002046D5F878113A469847074B984205D0A1
:10331000054638B12046FFF7CBFF03E00136043500
:10332000E7E7014D2846F8BD0200040001224FF0F6
:103330000111A0F89E210022C0F8B41180F89C2150
:1033400080F89D21C0F8B821C0F8BC210E21FFF7FC
:10335000CBBFFFFF10B50446FFF772FF94F81412BD
:103360002046C909FFF765F9B4F81A322046A4F8D7
:10337000D0310121FFF7B8FF374B98426AD194F85A
:103380001432C3F3411313B1022B50D05EE094F812
:1033900015320B2B5AD8DFE803F0060F5913591ECC
:1033A000272931333C3EE3682046984700284DD119
:1033B0002046FFF74AFF4CE0636A2046002102E006
:1033C000636A20460121984700283FD12046FFF735
:1033D00065FFE36C27E02046FFF774FF002835D136
:1033E0002046FFF75BFF34E02369DDE7204600213C
:1033F000FFF758F90023A4F8D0312AE06369D3E736
:10340000A3692046984708BB2046FFF747FF636C37
:1034100009E0E369C8E7236A20469847B0B9204627
:10342000FFF73CFFA36CA3B12046984711E0A368C7
:1034300063B120460121984740B9B4F81A32002BF5
:10344000CED094F81432DB0903D0B1E72046FFF761
:103450002FFF002010BD00BF0200040038B590F817
:1034600014320446DB0923D1B0F8D03113B3FFF78F
:1034700003FFB4F8D031EBB920460221FFF734FF47
:103480000F4B984218D194F81432C3F34113022B16
:103490000AD1A36843B1204601219847054618B9CF
:1034A0002046FFF7FBFE08E02046FFF701FF01E0A2
:1034B000FFF7F9FE002500E00546284638BD00BFAD
:1034C00002000400013A10B50446062A40D8DFE89D
:1034D00002F0041D21063F3A3C00036817E0042176
:1034E000FFF702FF1B4B984232D194F8141220468A
:1034F000C90904D1D4F8CC21B4F8D03103E00021BB
:10350000D4F8CC210B46FFF7A2F921E0436820460E
:1035100098471DE090F81432DB0909D00321FFF72A
:10352000E3FE0C4B984213D12046FFF78EFE0FE0CE
:1035300090F89C110B060BD501F07F0180F89C11CF
:10354000FEF7EAFF04E0002100E08021FFF7BEF86B
:10355000002010BD0200040070B515460E464FF461
:1035600007720021044600F022FD2A7B254B84F8D7
:103570009921A365C4F8D84012B1E365C4F8DC40D2
:10358000214B224A2360224B6360224BE360224B93
:103590006362224B2361224B6361224BA361224B66
:1035A000E361224B2362EB6B002B08BF13462365BC
:1035B0001F4A2B6C002B08BF134663656B6A23649C
:1035C000AB6AA3632B69A3626B69E362AB69236394
:1035D0002B6A6363EB6AE3632B6B63646B6BA364BB
:1035E000AB6BE3643368C4F8A0317368C4F8A431EA
:1035F000B368C4F8A831F368C4F8AC313369C4F8CF
:10360000B03170BDC5340000553300006D2D000091
:103610005D340000712D0000B52E0000FD2D00006E
:103620004D2D0000692F0000812E0000FD300000AC
:103630006F2D000010B590F89831072B0AD800EBD9
:1036400083040133C4F85811C4F8782180F8983104
:10365000002010BD004810BD0B00040010B590F80C
:103660009941B1EB440F06D800EB81008265C0F8A8
:10367000D830002010BD014810BD00BF030001007C
:1036800080B584B000AF78600B46FB707B689B68A8
:10369000FB607B685B68FA689A420EDA7B681A689E
:1036A000FB681344FA781A70FB685A1C7B689A60AE
:1036B0007B68DB685A1C7B68DA607B689A687B6889
:1036C0005B689A4215D17B6818697B6819687B68CA
:1036D0009B681A4600F04EFB02467B689B689A4244
:1036E00004D07B684FF0FF32DA6002E07B68002292
:1036F0009A6000BF1037BD4680BDFFFF80B58AB01D
:1037000000AFF860B9607A603B6001237B62BB6800
:103710003B620123FB6107E03A6A7B68B2FBF3F38B
:103720003B62FB690133FB613A6A7B689A42F3D2E0
:103730003B68FA699A4201D23B68FB617B6B03F0FC
:103740000103002B28D13B6B002B25D07B6B03F0B2
:103750000203002B05D03B68002B02D13023FB76FF
:1037600001E02023FB7608E0FB7E1946F868FFF7AE
:1037700087FFFB68DB68002B61DB3B6B002B0BD00A
:103780003B6B5A1E3A63FA699A42EDD304E07B6AB6
:103790007A6802FB03F37B62BA687B6AB2FBF3F3DD
:1037A0007A689A4294BF01230023DAB23B68591E1B
:1037B0003960012BCCBF01230023DBB21343DBB202
:1037C000002BE4D1BA687B6AB2FBF3F37B617B69BF
:1037D0007A6A02FB03F3BA68D31ABB601B4A7B699F
:1037E00013441B781946F868FFF74AFFFB68DB684B
:1037F000002B08DB7A6A7B68B2FBF3F37B627B6A9F
:10380000002BDFD100E000BF7B6B03F00103002B36
:1038100018D03B6B002B15D007E02021F868FFF78C
:103820002FFFFB68DB68002B0BDB3B6B002B09D009
:103830003B6B5A1E3A63FA699A42EED302E000BF2C
:1038400000E000BF2837BD4680BD00BF9C47000098
:1038500080B588B002AFF860B9607A603B60BB6841
:10386000002BB8BF5B423B6101237B6107E03A69F3
:103870007B68B2FBF3F33B617B6901337B613A699F
:103880007B689A42F3D23A687B699A4201D93B68D5
:103890007B613B6A002B0AD0BB68002B04DB7B6A90
:1038A00003F00403002B02D03B6A013B3B627B6ABE
:1038B00003F00203002B02D03B68002B19D07B6A77
:1038C00003F00103002B14D13B6A002B11D007E059
:1038D0002021F868FFF7D4FEFB68DB68002B52DB81
:1038E0003B6A002B05D03B6A5A1E3A627A699A42BB
:1038F000EED3BB68002B0BDABB685B42BB602D21AB
:10390000F868FFF7BDFEFB68DB68002B0DDA3FE0CF
:103910007B6A03F00403002B07D02B21F868FFF724
:10392000AFFEFB68DB68002B2FDB7B6A03F0020332
:10393000002B1CD07B6A03F00103002B17D13B68DE
:10394000002B14D13B6A002B11D007E03021F8681E
:10395000FFF796FEFB68DB68002B18DB3B6A002B49
:1039600005D03B6A5A1E3A627A699A42EED3B96828
:103970003A687B6A01933B6A009313467A68F86859
:10398000FFF7BCFE04E000BF02E000BF00E000BFA4
:103990001837BD4680BDFFFF80B5A2B002AFF8600A
:1039A000B9607A6007F110033B6540237B65002313
:1039B000BB65FB683B660023FB65BB685A1CBA60AD
:1039C0001B7887F87F3097F87F30002B00F09C81C0
:1039D00097F87F30252B40F08A8100237B67BB68F6
:1039E0001B7887F87F3097F87F30233B0D2B40D82A
:1039F00001A252F823F000BF613A0000733A0000C0
:103A0000733A0000733A0000733A0000733A000002
:103A1000733A0000733A0000513A0000733A000014
:103A2000313A0000733A0000733A0000413A000056
:103A30007B6F43F001037B67BB680133BB6017E01A
:103A40007B6F43F002037B67BB680133BB600FE011
:103A50007B6F43F004037B67BB680133BB6007E007
:103A60007B6F43F008037B67BB680133BB6000BF1B
:103A7000B5E700BF00233B67BB681B7887F87F3042
:103A800097F87F302F2B12D997F87F30392B0ED82B
:103A9000BB680133BB603A6F13469B0013445B0065
:103AA0001A4697F87F301344303B3B67E4E7002326
:103AB000BB67BB681B7887F87F3097F87F302E2B69
:103AC0001DD1BB680133BB60BB681B7887F87F30B2
:103AD00097F87F302F2B12D997F87F30392B0ED8DB
:103AE000BB680133BB60BA6F13469B0013445B0095
:103AF0001A4697F87F301344303BBB67E4E7BB6856
:103B00001B7887F87F3097F87F306C2B03D097F8BD
:103B10007F30682B07D1BB685A1CBA601B7887F8C6
:103B20007F3000BFEFE700BF97F87F30252B00F014
:103B3000D380252BC0F2D780782B00F3D480582B6C
:103B4000C0F2D180583B202B00F2CD8001A252F868
:103B500023F000BF4D3C0000E73C0000E73C0000C4
:103B6000E73C0000E73C0000E73C0000E73C0000C9
:103B7000E73C0000E73C0000E73C0000E73C0000B9
:103B8000D93B0000FF3B0000E73C0000E73C0000A1
:103B9000E73C0000E73C0000E73C0000E73C000099
:103BA000E73C0000E73C0000E73C0000E73C000089
:103BB000E73C0000B33C0000E73C0000E73C0000AD
:103BC000753C0000E73C0000253C0000E73C00009D
:103BD000E73C00004D3C00007B681B68191D7A68BB
:103BE00011601B68BB66BB6E87F8673097F867206B
:103BF00007F1500311461846FFF742FD73E07B685A
:103C00001B68191D7A6811601B68BB6607F15000BC
:103C10007B6F01933B6F0093BB6F0A22B96EFFF776
:103C200017FE60E07B681B68191D7A6811601B68CD
:103C3000BB66B96EBA6F07F150007B6F01933B6FA3
:103C4000009313460A22FFF759FD4CE07B681B687E
:103C5000191D7A6811601B68BB66B96EBA6F07F1EF
:103C600050007B6F01933B6F009313461022FFF7C8
:103C700045FD38E07B681B68191D7A6811601B6878
:103C8000FB66FB6E5A1CFA661B7887F87F3097F844
:103C90007F30002B0BD097F87F2007F1500311469F
:103CA0001846FFF7EDFCFB6D002BEADA1BE000BFC6
:103CB00019E07B681B68191D7A6811601B68BB6678
:103CC000B96E07F1500000230193082300930823E5
:103CD0001022FFF713FD06E007F1500325211846D7
:103CE000FFF7CEFC00BFBB680133BB6007E097F86D
:103CF0007F2007F1500311461846FFF7C1FCFB6D0A
:103D0000002BBFF65AAE00E000BFFB6D002B0EDDAE
:103D1000BB6D002B07D0BB6D1A4607F11003194687
:103D2000F86800F027F8FA6DBB6D1344FB65FB6D76
:103D300018468037BD4680BD0EB480B585B000AF53
:103D4000786007F12003FB6007F10C031A46F9695C
:103D50007868FFF721FE034618461437BD46BDE8D4
:103D6000804003B0704780B400AF00BFBD4680BC48
:103D70007047FFFF80B588B000AFF860B9607A6027
:103D8000FFF7F1FF8349FA6813465B001344DB0039
:103D90000B442C331B6803F00303022B3AD07D49FC
:103DA000FA6813465B001344DB000B4428331B689E
:103DB0007B617849FA6813465B001344DB000B44CF
:103DC00024331B687A69D31A013BFB61FB69002B22
:103DD0000BDA7049FA6813465B001344DB000B44AE
:103DE00020331B68FA691344FB617B68FA699A42C5
:103DF00010DA6849FA6813465B001344DB000B4491
:103E00002C331B6803F00303002B01D10023BCE01B
:103E1000FB697B607B68002B01D10023B5E00023A8
:103E2000BB615C49FA6813465B001344DB000B443A
:103E300028331B687B615749FA6813465B001344BB
:103E4000DB000B4424331B687A69D31A013BFB6106
:103E5000FB69002B0BDA4F49FA6813465B001344E9
:103E6000DB000B4420331B68FA691344FB614949AA
:103E7000FA6813465B001344DB000B4420331968D7
:103E80004448FA6813465B001344DB0003442433C0
:103E90001B68CB1AFA699A4213DB3E49FA6813464B
:103EA0005B001344DB000B44203319683948FA687F
:103EB00013465B001344DB00034424331B68CB1A16
:103EC00000E0FB69FB617B68FA699342A8BF134677
:103ED000FB613049FB685A1C13465B001344DB004E
:103EE0000B44043319682B48FA6813465B001344EB
:103EF000DB00034424331B680B44FA69B968184695
:103F000000F051F8FB69BA691344BB61FB69BA68F8
:103F10001344BB60FB697A68D31A7B601D49FA6859
:103F200013465B001344DB000B4424331A68FB691F
:103F3000D1181848FA6813465B001344DB000344A9
:103F4000243319601349FA6813465B001344DB00FD
:103F50000B44243319680F48FA6813465B00134476
:103F6000DB00034420331B68994209D10949FA68F0
:103F700013465B001344DB000B44243300221A6019
:103F80007B68002B7FF44DAFBB6918462037BD46D8
:103F900080BD00BF5000001008B500F00BF8BDE870
:103FA0000840FCF7ABB900F0C3BA00F0DBBA00F090
:103FB000E7BAFFFF10B5174A1749002000F0FAF8DA
:103FC0004FF480734FF480620021124800F02EF805
:103FD000124A1349012000F0EDF84FF480734FF4BA
:103FE000806200210D4800F021F80E4B1B68022B67
:103FF0000EDD0D4A0A49022000F0DCF8BDE8104051
:104000004FF480734FF480620021074800F00EB82F
:1040100010BD00BFD00A0010BC4700000C0B001000
:10402000BE470000B8470000480B001070B5C468D8
:10403000A50708D0B2F5007F11D0B2F5806F04D08B
:10404000B2F5807F0BD0012008E0012300F12401AC
:10405000144301610160C361C460002070BD6FF052
:104060007F455E1EAE42F3D3EDE740EA01039B07B6
:1040700030B510D105460C46214628460A6855F849
:10408000043B04349A4206D1A2F1013323EA02032D
:1040900013F0803FF0D010F8013B11F8012B934250
:1040A00001D0981A30BD002BF5D11846FAE7034627
:1040B00010B59A071C4615D1234654F8042BA2F1DB
:1040C000013121EA020111F0803FF5D0D1B299B15E
:1040D00012F47F4F0ED012F47F0F14BF2346033328
:1040E000013003E01A4612F8011B09B9181A10BD75
:1040F0001346DEE70233F3E70133F1E740EA010359
:1041000070B59D0722D10E460346032A314608D9D1
:1041100056F8045BA5F1013424EA050414F0803F4D
:104120000DD0013A0139541C08D011F8014F551E29
:1041300003F8014B64B91A44934204D170BD43F8AB
:10414000045B043AE1E703F8014BF5E70346E8E7CF
:104150002A46E8E730B54C1E421E14F8013F43B131
:1041600012F8015F9D42F8D010F8013B002BF2D10C
:10417000184630BDC36810B523F020038269C360C0
:10418000836A04469A420ED000F048F8E36823F4AC
:10419000405323F0100343F01003E360A36AA361CC
:1041A0002369E3622360E36823F4804323F0400340
:1041B000E36010BD70B50D4606461046144600F08B
:1041C000A5F82B78722B17D0772B18D0612B23D121
:1041D000082348F2020215F8011F2B2912D0622988
:1041E00015D01B07E260666104D50222002120463B
:1041F00000F0D6F8204670BD00230122EBE704232F
:104200000222E8E742F0030243F00203E3E742F050
:10421000040243F00103DEE70024EBE738B504466F
:10422000C36805690168C26A23F40020E06003F0F6
:104230008200022802D04FF0FF3038BDDB030CD5DE
:10424000914238BF11468D4209D10023A360E36833
:10425000E56223F480332560E3600020EDE7224629
:104260002846491B00F004F80028EED0E3E7FFFFE2
:104270002DE9F041D5688046EB020E461446576999
:1042800005D5384600F098F945F01005A061124BAD
:104290002B408BB13846A16900F097F9002806DA67
:1042A000E3684FF0FF3043F08003E36011E025F452
:1042B000003525F01005E560324641463846FDF7E9
:1042C0009DFA20F00043F61AA3693344A361002845
:1042D000E6D1BDE8F08100BF10000200A8B14FF0A8
:1042E000805340F80C3C50F8042C72B11368B3F1C1
:1042F000805F0AD150F8083C516803330B4440F802
:10430000083C936840F8043CEDE77047F0B5D0E90D
:104310000467C4680546A10789B020D0220716D4D7
:1043200000F020F8384600F044F9230502D5304665
:10433000FFF7D4FFA40DA40514F1A54F07D1202247
:104340006846296A00F044F9684600F0C7F83C2244
:1043500000212846FFF72BFE002009B0F0BD4FF0EA
:10436000FF30FAE7F8B5044638B905460A4B0B4E5C
:104370001F68A74205DC2846F8BDBDE8F84000F0FC
:10438000B7B8304600F0B4F8002818BF4FF0FF353A
:1043900001343C36EDE700BFB8470000D00A0010FA
:1043A0002DE9F843C6683B4B044633400D46904622
:1043B000D0F814906BB1484600F001F9074640B9B7
:1043C000B8F1010F09D0B8F1020F31D0B8F1000FE8
:1043D00007D002273846BDE8F883204600F05CF895
:1043E0000544002DF5DBB30404D52368E26A9A4244
:1043F00038BFE362A069A8420EDC2368E26A9342F8
:1044000038BF134622691918891AA94204DB216BA7
:1044100000EB010CAC452CDC0023C4E9013346F071
:104420002006A56226F4032626F04006E660D1E7C2
:10443000484600F0C1F80028E26804DA42F0800241
:104440000127E260C6E72168A369D4F82CC0614562
:104450002CBF5B18634421699206A3EB010303D5CB
:10446000A26A9342B8BF13468342ACBFED182D1821
:10447000B7E72D1AB00744BF691AA160F10744BF1E
:104480009B1AEB1A2A4448BF6360226026F020067C
:10449000C8E700BF03001000C3689A0705D12122B6
:1044A0000D4B4FF0FF301A60704703F020021B03E2
:1044B00009D512B1806A01387047036882690069C2
:1044C0001344181AF7E70AB1806A704703688269D3
:1044D00000691344181A7047B00C001010B5044658
:1044E000FFF7E5FD01462046BDE8104000F06AB840
:1044F000C36870B513F00306044611D09B0611D5AE
:10450000856AFFF737FEE368204623F44053E360F3
:10451000FFF784FE0022064629462046FFF740FFAB
:10452000304670BD836905681D440369ED1AEAE7EA
:1045300040EA0103DB0703460CD40346043A22BFDA
:1045400051F804CB43F804CBB2F10402F7D20432A1
:1045500008BF7047013A24BF11F801CB03F801CB23
:10456000F8D870478B18814238BF9842BFF4E0AF4B
:1045700081418018013A0B5C00F8013DFAD8704780
:10458000034613F0030F0ED101F0FF0141EA0121B0
:1045900041EA0141043A24BF43F8041BB2F104028A
:1045A000F9D202F10402013A24BF03F8011BFAE731
:1045B00070474FF0FF3070474FF0FF3070474FF0BB
:1045C000FF3070474FF0FF3070474FF0FF307047BB
:1045D0004FF0FF307047FFFF12010002EF02014071
:1045E000C91F8300000101020301FFFF0403090446
:1045F00008034E00580050001403560043004F00BB
:104600004D00200050006F00720074000E034E0039
:10461000580050002D00370037000A0356004300B1
:104620004F004D00144700007047000000000000DC
:1046300000000000000000009047000000000000A3
:10464000011122024943546573746572230000000E
:104650006172672025642F25643A20272573270A75
:1046600000FFFFFF636C695F707574636861722897
:10467000293A206F75747075743A2025580A00FF26
:104680001B5B31471B5B304B7365617263683A009B
:104690001B5B31471B5B304B00FFFFFF200000001E
:1046A0005E430A000A7365617263683A00FFFFFFA8
:1046B000001BB70000800000000A0000080A00008C
:1046C000200A0000280A0000B0080000B809000015
:1046D000D00A0000010900000909000021090000BA
:1046E000410900004909000051090000710900005A
:1046F000790900008109000089090000D90900003A
:104700001A08000078080000220800008008000055
:1047100088080000A324000049250000A924000007
:104720009D280000C5240000492800001525000030
:1047300019250000CD2500000126000033260000C9
:10474000352600005926000081260000A52600001D
:10475000CD2600004B280000C92700004F2800008C
:104760005328000059280000F5240000F12600001D
:10477000353600005D360000413200004B3200004B
:10478000793200009D320000A7320000B1320000F3
:10479000092C00000D2C0000B92B00003031323301
:1047A0003435363738394142434445465465726D95
:1047B000696E616C00FFFFFF080000007200770067
:1047C00009024B00020100C0FA080B0002020200BD
:1047D0000409040000010202000405240010010580
:1047E00024010101042402020524060001070582B8
:1047F0000310000209040100020A00000407050179
:10480000024000000705810240000000244600002D
:1048100053454747455220525454000000000000C1
:104820000200000002000000AC470000C0060010BB
:104830000004000000000000000000000000000074
:104840000000000000000000000000000000000068
:104850000000000000000000AC470000C00A00108B
:104860001000000000000000000000000000000038
:104870000000000000000000000000000000000038
:08488000000000000000000030
:040000030000017187
:00000001FF
